{
  "address": "0x1658029Ce0e48d70865d7c4230460d8e3a8E296e",
  "abi": [
    {
      "inputs": [
        {
          "internalType": "address",
          "name": "vrfCoordinatorV2Plus",
          "type": "address"
        },
        {
          "internalType": "uint256",
          "name": "entrenceFee",
          "type": "uint256"
        },
        {
          "internalType": "uint256",
          "name": "minExecutionBalance",
          "type": "uint256"
        },
        {
          "internalType": "bytes32",
          "name": "gasLane",
          "type": "bytes32"
        },
        {
          "internalType": "uint256",
          "name": "subId",
          "type": "uint256"
        },
        {
          "internalType": "uint32",
          "name": "interval",
          "type": "uint32"
        }
      ],
      "stateMutability": "nonpayable",
      "type": "constructor"
    },
    {
      "inputs": [
        {
          "internalType": "address",
          "name": "have",
          "type": "address"
        },
        {
          "internalType": "address",
          "name": "want",
          "type": "address"
        }
      ],
      "name": "OnlyCoordinatorCanFulfill",
      "type": "error"
    },
    {
      "inputs": [],
      "name": "OnlyForwarder",
      "type": "error"
    },
    {
      "inputs": [
        {
          "internalType": "address",
          "name": "have",
          "type": "address"
        },
        {
          "internalType": "address",
          "name": "owner",
          "type": "address"
        },
        {
          "internalType": "address",
          "name": "coordinator",
          "type": "address"
        }
      ],
      "name": "OnlyOwnerOrCoordinator",
      "type": "error"
    },
    {
      "inputs": [
        {
          "internalType": "address",
          "name": "txOrigin",
          "type": "address"
        }
      ],
      "name": "OnlySimulatedBackend",
      "type": "error"
    },
    {
      "inputs": [],
      "name": "Raffle__NotEnoughEthEntered",
      "type": "error"
    },
    {
      "inputs": [
        {
          "internalType": "uint256",
          "name": "wordsReturned",
          "type": "uint256"
        }
      ],
      "name": "Raffle__NotEnoughWords",
      "type": "error"
    },
    {
      "inputs": [],
      "name": "Raffle__NotOpen",
      "type": "error"
    },
    {
      "inputs": [],
      "name": "Raffle__TransferFailed",
      "type": "error"
    },
    {
      "inputs": [],
      "name": "ZeroAddress",
      "type": "error"
    },
    {
      "anonymous": false,
      "inputs": [
        {
          "indexed": false,
          "internalType": "address",
          "name": "vrfCoordinator",
          "type": "address"
        }
      ],
      "name": "CoordinatorSet",
      "type": "event"
    },
    {
      "anonymous": false,
      "inputs": [
        {
          "indexed": true,
          "internalType": "address",
          "name": "currentForwardedAddress",
          "type": "address"
        },
        {
          "indexed": true,
          "internalType": "address",
          "name": "updatedForwardedAddress",
          "type": "address"
        }
      ],
      "name": "ForwarderAddressUpdated",
      "type": "event"
    },
    {
      "anonymous": false,
      "inputs": [
        {
          "indexed": true,
          "internalType": "address",
          "name": "from",
          "type": "address"
        },
        {
          "indexed": true,
          "internalType": "address",
          "name": "to",
          "type": "address"
        }
      ],
      "name": "OwnershipTransferRequested",
      "type": "event"
    },
    {
      "anonymous": false,
      "inputs": [
        {
          "indexed": true,
          "internalType": "address",
          "name": "from",
          "type": "address"
        },
        {
          "indexed": true,
          "internalType": "address",
          "name": "to",
          "type": "address"
        }
      ],
      "name": "OwnershipTransferred",
      "type": "event"
    },
    {
      "anonymous": false,
      "inputs": [
        {
          "indexed": true,
          "internalType": "address",
          "name": "player",
          "type": "address"
        }
      ],
      "name": "RaffleEnter",
      "type": "event"
    },
    {
      "anonymous": false,
      "inputs": [
        {
          "indexed": true,
          "internalType": "uint256",
          "name": "requestId",
          "type": "uint256"
        }
      ],
      "name": "RequestedRaffleWinner",
      "type": "event"
    },
    {
      "anonymous": false,
      "inputs": [
        {
          "indexed": false,
          "internalType": "address payable",
          "name": "recentWinner",
          "type": "address"
        }
      ],
      "name": "WinnerPicked",
      "type": "event"
    },
    {
      "inputs": [],
      "name": "acceptOwnership",
      "outputs": [],
      "stateMutability": "nonpayable",
      "type": "function"
    },
    {
      "inputs": [
        {
          "internalType": "bytes",
          "name": "",
          "type": "bytes"
        }
      ],
      "name": "checkUpkeep",
      "outputs": [
        {
          "internalType": "bool",
          "name": "upkeepNeeded",
          "type": "bool"
        },
        {
          "internalType": "bytes",
          "name": "",
          "type": "bytes"
        }
      ],
      "stateMutability": "view",
      "type": "function"
    },
    {
      "inputs": [],
      "name": "enterRaffle",
      "outputs": [
        {
          "internalType": "bool",
          "name": "",
          "type": "bool"
        }
      ],
      "stateMutability": "payable",
      "type": "function"
    },
    {
      "inputs": [],
      "name": "getEntranceFee",
      "outputs": [
        {
          "internalType": "uint256",
          "name": "",
          "type": "uint256"
        }
      ],
      "stateMutability": "view",
      "type": "function"
    },
    {
      "inputs": [],
      "name": "getInterval",
      "outputs": [
        {
          "internalType": "uint256",
          "name": "",
          "type": "uint256"
        }
      ],
      "stateMutability": "view",
      "type": "function"
    },
    {
      "inputs": [],
      "name": "getLastUpkeepTimestamp",
      "outputs": [
        {
          "internalType": "uint256",
          "name": "",
          "type": "uint256"
        }
      ],
      "stateMutability": "view",
      "type": "function"
    },
    {
      "inputs": [],
      "name": "getMinExecutionBalance",
      "outputs": [
        {
          "internalType": "uint256",
          "name": "",
          "type": "uint256"
        }
      ],
      "stateMutability": "view",
      "type": "function"
    },
    {
      "inputs": [],
      "name": "getNumberOfPlayers",
      "outputs": [
        {
          "internalType": "uint256",
          "name": "",
          "type": "uint256"
        }
      ],
      "stateMutability": "view",
      "type": "function"
    },
    {
      "inputs": [
        {
          "internalType": "uint256",
          "name": "playerIndex",
          "type": "uint256"
        }
      ],
      "name": "getPlayer",
      "outputs": [
        {
          "internalType": "address",
          "name": "",
          "type": "address"
        }
      ],
      "stateMutability": "view",
      "type": "function"
    },
    {
      "inputs": [],
      "name": "getRaffleState",
      "outputs": [
        {
          "internalType": "enum Raffle.RaffleState",
          "name": "",
          "type": "uint8"
        }
      ],
      "stateMutability": "view",
      "type": "function"
    },
    {
      "inputs": [],
      "name": "getRecentWinner",
      "outputs": [
        {
          "internalType": "address",
          "name": "",
          "type": "address"
        }
      ],
      "stateMutability": "view",
      "type": "function"
    },
    {
      "inputs": [],
      "name": "owner",
      "outputs": [
        {
          "internalType": "address",
          "name": "",
          "type": "address"
        }
      ],
      "stateMutability": "view",
      "type": "function"
    },
    {
      "inputs": [
        {
          "internalType": "bytes",
          "name": "",
          "type": "bytes"
        }
      ],
      "name": "performUpkeep",
      "outputs": [],
      "stateMutability": "nonpayable",
      "type": "function"
    },
    {
      "inputs": [
        {
          "internalType": "uint256",
          "name": "requestId",
          "type": "uint256"
        },
        {
          "internalType": "uint256[]",
          "name": "randomWords",
          "type": "uint256[]"
        }
      ],
      "name": "rawFulfillRandomWords",
      "outputs": [],
      "stateMutability": "nonpayable",
      "type": "function"
    },
    {
      "inputs": [],
      "name": "s_vrfCoordinator",
      "outputs": [
        {
          "internalType": "contract IVRFCoordinatorV2Plus",
          "name": "",
          "type": "address"
        }
      ],
      "stateMutability": "view",
      "type": "function"
    },
    {
      "inputs": [
        {
          "internalType": "address",
          "name": "_vrfCoordinator",
          "type": "address"
        }
      ],
      "name": "setCoordinator",
      "outputs": [],
      "stateMutability": "nonpayable",
      "type": "function"
    },
    {
      "inputs": [
        {
          "internalType": "address",
          "name": "forwarderAddress",
          "type": "address"
        }
      ],
      "name": "setForwarderAddress",
      "outputs": [],
      "stateMutability": "nonpayable",
      "type": "function"
    },
    {
      "inputs": [
        {
          "internalType": "address",
          "name": "to",
          "type": "address"
        }
      ],
      "name": "transferOwnership",
      "outputs": [],
      "stateMutability": "nonpayable",
      "type": "function"
    }
  ],
  "transactionHash": "0x76a2fcefcf59af94caab48274b3ba85aa708fa57a1aadc5eefdede2b350ee3c8",
  "args": [
    "0x9DdfaCa8183c41ad55329BdeeD9F6A8d53168B1B",
    "1000000000000000",
    "1000000000000000",
    "0x787d74caea10b2b357790d5b5247c2f63d1d91572a9846f780606e4d953677ae",
    "53924261630398251862959598391816649902070329945767605211450686487683906706714",
    "30"
  ],
  "numDeployments": 3,
  "solcInputHash": "a83c87bf3d7cfcb583bee492d0cd19bb",
  "bytecode": "0x6101206040523480156200001257600080fd5b50604051620026ba380380620026ba8339818101604052810190620000389190620004a7565b85338060008073ffffffffffffffffffffffffffffffffffffffff168273ffffffffffffffffffffffffffffffffffffffff1603620000ae576040517f08c379a0000000000000000000000000000000000000000000000000000000008152600401620000a590620005a4565b60405180910390fd5b816000806101000a81548173ffffffffffffffffffffffffffffffffffffffff021916908373ffffffffffffffffffffffffffffffffffffffff160217905550600073ffffffffffffffffffffffffffffffffffffffff168173ffffffffffffffffffffffffffffffffffffffff1614620001355762000134816200025760201b60201c565b5b505050600073ffffffffffffffffffffffffffffffffffffffff168173ffffffffffffffffffffffffffffffffffffffff16036200019f576040517fd92e233d00000000000000000000000000000000000000000000000000000000815260040160405180910390fd5b80600260006101000a81548173ffffffffffffffffffffffffffffffffffffffff021916908373ffffffffffffffffffffffffffffffffffffffff1602179055505084608081815250508360a081815250508260c081815250508160e081815250508063ffffffff166101008163ffffffff16815250506000600660146101000a81548160ff021916908360018111156200023f576200023e620005c6565b5b02179055504260058190555050505050505062000667565b3373ffffffffffffffffffffffffffffffffffffffff168173ffffffffffffffffffffffffffffffffffffffff1603620002c8576040517f08c379a0000000000000000000000000000000000000000000000000000000008152600401620002bf9062000645565b60405180910390fd5b80600160006101000a81548173ffffffffffffffffffffffffffffffffffffffff021916908373ffffffffffffffffffffffffffffffffffffffff1602179055508073ffffffffffffffffffffffffffffffffffffffff1660008054906101000a900473ffffffffffffffffffffffffffffffffffffffff1673ffffffffffffffffffffffffffffffffffffffff167fed8889f560326eb138920d842192f0eb3dd22b4f139c87a2c57538e05bae127860405160405180910390a350565b600080fd5b600073ffffffffffffffffffffffffffffffffffffffff82169050919050565b6000620003b8826200038b565b9050919050565b620003ca81620003ab565b8114620003d657600080fd5b50565b600081519050620003ea81620003bf565b92915050565b6000819050919050565b6200040581620003f0565b81146200041157600080fd5b50565b6000815190506200042581620003fa565b92915050565b6000819050919050565b62000440816200042b565b81146200044c57600080fd5b50565b600081519050620004608162000435565b92915050565b600063ffffffff82169050919050565b620004818162000466565b81146200048d57600080fd5b50565b600081519050620004a18162000476565b92915050565b60008060008060008060c08789031215620004c757620004c662000386565b5b6000620004d789828a01620003d9565b9650506020620004ea89828a0162000414565b9550506040620004fd89828a0162000414565b94505060606200051089828a016200044f565b93505060806200052389828a0162000414565b92505060a06200053689828a0162000490565b9150509295509295509295565b600082825260208201905092915050565b7f43616e6e6f7420736574206f776e657220746f207a65726f0000000000000000600082015250565b60006200058c60188362000543565b9150620005998262000554565b602082019050919050565b60006020820190508181036000830152620005bf816200057d565b9050919050565b7f4e487b7100000000000000000000000000000000000000000000000000000000600052602160045260246000fd5b7f43616e6e6f74207472616e7366657220746f2073656c66000000000000000000600082015250565b60006200062d60178362000543565b91506200063a82620005f5565b602082019050919050565b6000602082019050818103600083015262000660816200061e565b9050919050565b60805160a05160c05160e05161010051611ff9620006c1600039600081816109140152610d85015260006107ae0152600061078801526000818161095c0152610f4001526000818161041201526105170152611ff96000f3fe6080604052600436106101095760003560e01c80638ea9811711610095578063e03093e411610064578063e03093e414610327578063e55ae4e814610352578063f2fde38b1461038f578063f523facd146103b8578063fd6673f5146103e357610109565b80638ea981171461027f57806391ad27b4146102a85780639eccacf6146102d3578063d777cc6d146102fe57610109565b80634585e33b116100dc5780634585e33b146101ab578063473f1ddc146101d45780636e04ff0d146101ff57806379ba50971461023d5780638da5cb5b1461025457610109565b806309bc33a71461010e578063115cbaf5146101395780631fe543e3146101645780632cfcc5391461018d575b600080fd5b34801561011a57600080fd5b5061012361040e565b604051610130919061153c565b60405180910390f35b34801561014557600080fd5b5061014e610436565b60405161015b91906115ce565b60405180910390f35b34801561017057600080fd5b5061018b6004803603810190610186919061168e565b61044d565b005b610195610513565b6040516101a29190611709565b60405180910390f35b3480156101b757600080fd5b506101d260048036038101906101cd9190611865565b610689565b005b3480156101e057600080fd5b506101e96108a8565b6040516101f691906118ef565b60405180910390f35b34801561020b57600080fd5b5061022660048036038101906102219190611865565b6108d2565b604051610234929190611989565b60405180910390f35b34801561024957600080fd5b506102526109e2565b005b34801561026057600080fd5b50610269610b77565b60405161027691906118ef565b60405180910390f35b34801561028b57600080fd5b506102a660048036038101906102a191906119e5565b610ba0565b005b3480156102b457600080fd5b506102bd610d81565b6040516102ca919061153c565b60405180910390f35b3480156102df57600080fd5b506102e8610daf565b6040516102f59190611a71565b60405180910390f35b34801561030a57600080fd5b50610325600480360381019061032091906119e5565b610dd5565b005b34801561033357600080fd5b5061033c610ed6565b604051610349919061153c565b60405180910390f35b34801561035e57600080fd5b5061037960048036038101906103749190611a8c565b610ee0565b60405161038691906118ef565b60405180910390f35b34801561039b57600080fd5b506103b660048036038101906103b191906119e5565b610f28565b005b3480156103c457600080fd5b506103cd610f3c565b6040516103da919061153c565b60405180910390f35b3480156103ef57600080fd5b506103f8610f64565b604051610405919061153c565b60405180910390f35b60007f0000000000000000000000000000000000000000000000000000000000000000905090565b6000600660149054906101000a900460ff16905090565b600260009054906101000a900473ffffffffffffffffffffffffffffffffffffffff1673ffffffffffffffffffffffffffffffffffffffff163373ffffffffffffffffffffffffffffffffffffffff16146105035733600260009054906101000a900473ffffffffffffffffffffffffffffffffffffffff166040517f1cf993f40000000000000000000000000000000000000000000000000000000081526004016104fa929190611ab9565b60405180910390fd5b61050e838383610f71565b505050565b60007f000000000000000000000000000000000000000000000000000000000000000034101561056f576040517f066d781f00000000000000000000000000000000000000000000000000000000815260040160405180910390fd5b6000600181111561058357610582611557565b5b600660149054906101000a900460ff1660018111156105a5576105a4611557565b5b146105dc576040517f1425571c00000000000000000000000000000000000000000000000000000000815260040160405180910390fd5b6004339080600181540180825580915050600190039060005260206000200160009091909190916101000a81548173ffffffffffffffffffffffffffffffffffffffff021916908373ffffffffffffffffffffffffffffffffffffffff1602179055503373ffffffffffffffffffffffffffffffffffffffff167f0805e1d667bddb8a95f0f09880cf94f403fb596ce79928d9f29b74203ba284d460405160405180910390a26001905090565b600360009054906101000a900473ffffffffffffffffffffffffffffffffffffffff1673ffffffffffffffffffffffffffffffffffffffff163373ffffffffffffffffffffffffffffffffffffffff1614610710576040517fa73d374100000000000000000000000000000000000000000000000000000000815260040160405180910390fd5b6001600660146101000a81548160ff0219169083600181111561073657610735611557565b5b02179055506000600260009054906101000a900473ffffffffffffffffffffffffffffffffffffffff1673ffffffffffffffffffffffffffffffffffffffff16639b1c385e6040518060c001604052807f000000000000000000000000000000000000000000000000000000000000000081526020017f00000000000000000000000000000000000000000000000000000000000000008152602001600361ffff168152602001620f424063ffffffff168152602001600163ffffffff168152602001610813604051806020016040528060001515815250611228565b8152506040518263ffffffff1660e01b81526004016108329190611c19565b6020604051808303816000875af1158015610851573d6000803e3d6000fd5b505050506040513d601f19601f820116820180604052508101906108759190611c50565b9050807fcd6e45c8998311cab7e9d4385596cac867e20a0587194b954fa3a731c93ce78b60405160405180910390a25050565b6000600660009054906101000a900473ffffffffffffffffffffffffffffffffffffffff16905090565b6000606060008060018111156108eb576108ea611557565b5b600660149054906101000a900460ff16600181111561090d5761090c611557565b5b14905060007f000000000000000000000000000000000000000000000000000000000000000063ffffffff16600554426109479190611cac565b119050600060016004805490501015905060007f0000000000000000000000000000000000000000000000000000000000000000471015905083801561098a5750825b80156109935750815b801561099c5750805b9550856040518060400160405280600381526020017f30783000000000000000000000000000000000000000000000000000000000008152509550955050505050915091565b600160009054906101000a900473ffffffffffffffffffffffffffffffffffffffff1673ffffffffffffffffffffffffffffffffffffffff163373ffffffffffffffffffffffffffffffffffffffff1614610a72576040517f08c379a0000000000000000000000000000000000000000000000000000000008152600401610a6990611d3d565b60405180910390fd5b60008060009054906101000a900473ffffffffffffffffffffffffffffffffffffffff169050336000806101000a81548173ffffffffffffffffffffffffffffffffffffffff021916908373ffffffffffffffffffffffffffffffffffffffff1602179055506000600160006101000a81548173ffffffffffffffffffffffffffffffffffffffff021916908373ffffffffffffffffffffffffffffffffffffffff1602179055503373ffffffffffffffffffffffffffffffffffffffff168173ffffffffffffffffffffffffffffffffffffffff167f8be0079c531659141344cd1fd0a4f28419497f9722a3daafe3b4186f6b6457e060405160405180910390a350565b60008060009054906101000a900473ffffffffffffffffffffffffffffffffffffffff16905090565b610ba8610b77565b73ffffffffffffffffffffffffffffffffffffffff163373ffffffffffffffffffffffffffffffffffffffff1614158015610c315750600260009054906101000a900473ffffffffffffffffffffffffffffffffffffffff1673ffffffffffffffffffffffffffffffffffffffff163373ffffffffffffffffffffffffffffffffffffffff1614155b15610ca05733610c3f610b77565b600260009054906101000a900473ffffffffffffffffffffffffffffffffffffffff166040517f061db9c1000000000000000000000000000000000000000000000000000000008152600401610c9793929190611d5d565b60405180910390fd5b600073ffffffffffffffffffffffffffffffffffffffff168173ffffffffffffffffffffffffffffffffffffffff1603610d06576040517fd92e233d00000000000000000000000000000000000000000000000000000000815260040160405180910390fd5b80600260006101000a81548173ffffffffffffffffffffffffffffffffffffffff021916908373ffffffffffffffffffffffffffffffffffffffff1602179055507fd1a6a14209a385a964d036e404cb5cfb71f4000cdb03c9366292430787261be681604051610d7691906118ef565b60405180910390a150565b60007f000000000000000000000000000000000000000000000000000000000000000063ffffffff16905090565b600260009054906101000a900473ffffffffffffffffffffffffffffffffffffffff1681565b610ddd6112c0565b600073ffffffffffffffffffffffffffffffffffffffff168173ffffffffffffffffffffffffffffffffffffffff1603610e1657600080fd5b8073ffffffffffffffffffffffffffffffffffffffff16600360009054906101000a900473ffffffffffffffffffffffffffffffffffffffff1673ffffffffffffffffffffffffffffffffffffffff167f039ad854736757070884dd787ef1a7f58db33546639d1f3efddcf4a33fb8997e60405160405180910390a380600360006101000a81548173ffffffffffffffffffffffffffffffffffffffff021916908373ffffffffffffffffffffffffffffffffffffffff16021790555050565b6000600554905090565b600060048281548110610ef657610ef5611d94565b5b9060005260206000200160009054906101000a900473ffffffffffffffffffffffffffffffffffffffff169050919050565b610f306112c0565b610f3981611350565b50565b60007f0000000000000000000000000000000000000000000000000000000000000000905090565b6000600480549050905090565b600163ffffffff16828290501015610fc357818190506040517fc861290f000000000000000000000000000000000000000000000000000000008152600401610fba919061153c565b60405180910390fd5b600060048054905083836000818110610fdf57610fde611d94565b5b90506020020135610ff09190611df2565b90506004818154811061100657611005611d94565b5b9060005260206000200160009054906101000a900473ffffffffffffffffffffffffffffffffffffffff16600660006101000a81548173ffffffffffffffffffffffffffffffffffffffff021916908373ffffffffffffffffffffffffffffffffffffffff1602179055506000600660009054906101000a900473ffffffffffffffffffffffffffffffffffffffff1673ffffffffffffffffffffffffffffffffffffffff16476040516110b990611e54565b60006040518083038185875af1925050503d80600081146110f6576040519150601f19603f3d011682016040523d82523d6000602084013e6110fb565b606091505b5050905080611136576040517fa1d04b3900000000000000000000000000000000000000000000000000000000815260040160405180910390fd5b600067ffffffffffffffff8111156111515761115061173a565b5b60405190808252806020026020018201604052801561117f5781602001602082028036833780820191505090505b506004908051906020019061119592919061147c565b50426005819055506000600660146101000a81548160ff021916908360018111156111c3576111c2611557565b5b02179055507f5b690ec4a06fe979403046eaeea5b3ce38524683c3001f662c8b5a829632f7df600660009054906101000a900473ffffffffffffffffffffffffffffffffffffffff166040516112199190611e8a565b60405180910390a15050505050565b60607f92fd13387c7fe7befbc38d303d6468778fb9731bc4583f17d92989c6fcfdeaaa8260405160240161125c9190611ed0565b604051602081830303815290604052907bffffffffffffffffffffffffffffffffffffffffffffffffffffffff19166020820180517bffffffffffffffffffffffffffffffffffffffffffffffffffffffff83818316178352505050509050919050565b60008054906101000a900473ffffffffffffffffffffffffffffffffffffffff1673ffffffffffffffffffffffffffffffffffffffff163373ffffffffffffffffffffffffffffffffffffffff161461134e576040517f08c379a000000000000000000000000000000000000000000000000000000000815260040161134590611f37565b60405180910390fd5b565b3373ffffffffffffffffffffffffffffffffffffffff168173ffffffffffffffffffffffffffffffffffffffff16036113be576040517f08c379a00000000000000000000000000000000000000000000000000000000081526004016113b590611fa3565b60405180910390fd5b80600160006101000a81548173ffffffffffffffffffffffffffffffffffffffff021916908373ffffffffffffffffffffffffffffffffffffffff1602179055508073ffffffffffffffffffffffffffffffffffffffff1660008054906101000a900473ffffffffffffffffffffffffffffffffffffffff1673ffffffffffffffffffffffffffffffffffffffff167fed8889f560326eb138920d842192f0eb3dd22b4f139c87a2c57538e05bae127860405160405180910390a350565b8280548282559060005260206000209081019282156114f5579160200282015b828111156114f45782518260006101000a81548173ffffffffffffffffffffffffffffffffffffffff021916908373ffffffffffffffffffffffffffffffffffffffff1602179055509160200191906001019061149c565b5b5090506115029190611506565b5090565b5b8082111561151f576000816000905550600101611507565b5090565b6000819050919050565b61153681611523565b82525050565b6000602082019050611551600083018461152d565b92915050565b7f4e487b7100000000000000000000000000000000000000000000000000000000600052602160045260246000fd5b6002811061159757611596611557565b5b50565b60008190506115a882611586565b919050565b60006115b88261159a565b9050919050565b6115c8816115ad565b82525050565b60006020820190506115e360008301846115bf565b92915050565b6000604051905090565b600080fd5b600080fd5b61160681611523565b811461161157600080fd5b50565b600081359050611623816115fd565b92915050565b600080fd5b600080fd5b600080fd5b60008083601f84011261164e5761164d611629565b5b8235905067ffffffffffffffff81111561166b5761166a61162e565b5b60208301915083602082028301111561168757611686611633565b5b9250929050565b6000806000604084860312156116a7576116a66115f3565b5b60006116b586828701611614565b935050602084013567ffffffffffffffff8111156116d6576116d56115f8565b5b6116e286828701611638565b92509250509250925092565b60008115159050919050565b611703816116ee565b82525050565b600060208201905061171e60008301846116fa565b92915050565b600080fd5b6000601f19601f8301169050919050565b7f4e487b7100000000000000000000000000000000000000000000000000000000600052604160045260246000fd5b61177282611729565b810181811067ffffffffffffffff821117156117915761179061173a565b5b80604052505050565b60006117a46115e9565b90506117b08282611769565b919050565b600067ffffffffffffffff8211156117d0576117cf61173a565b5b6117d982611729565b9050602081019050919050565b82818337600083830152505050565b6000611808611803846117b5565b61179a565b90508281526020810184848401111561182457611823611724565b5b61182f8482856117e6565b509392505050565b600082601f83011261184c5761184b611629565b5b813561185c8482602086016117f5565b91505092915050565b60006020828403121561187b5761187a6115f3565b5b600082013567ffffffffffffffff811115611899576118986115f8565b5b6118a584828501611837565b91505092915050565b600073ffffffffffffffffffffffffffffffffffffffff82169050919050565b60006118d9826118ae565b9050919050565b6118e9816118ce565b82525050565b600060208201905061190460008301846118e0565b92915050565b600081519050919050565b600082825260208201905092915050565b60005b83811015611944578082015181840152602081019050611929565b60008484015250505050565b600061195b8261190a565b6119658185611915565b9350611975818560208601611926565b61197e81611729565b840191505092915050565b600060408201905061199e60008301856116fa565b81810360208301526119b08184611950565b90509392505050565b6119c2816118ce565b81146119cd57600080fd5b50565b6000813590506119df816119b9565b92915050565b6000602082840312156119fb576119fa6115f3565b5b6000611a09848285016119d0565b91505092915050565b6000819050919050565b6000611a37611a32611a2d846118ae565b611a12565b6118ae565b9050919050565b6000611a4982611a1c565b9050919050565b6000611a5b82611a3e565b9050919050565b611a6b81611a50565b82525050565b6000602082019050611a866000830184611a62565b92915050565b600060208284031215611aa257611aa16115f3565b5b6000611ab084828501611614565b91505092915050565b6000604082019050611ace60008301856118e0565b611adb60208301846118e0565b9392505050565b6000819050919050565b611af581611ae2565b82525050565b611b0481611523565b82525050565b600061ffff82169050919050565b611b2181611b0a565b82525050565b600063ffffffff82169050919050565b611b4081611b27565b82525050565b600082825260208201905092915050565b6000611b628261190a565b611b6c8185611b46565b9350611b7c818560208601611926565b611b8581611729565b840191505092915050565b600060c083016000830151611ba86000860182611aec565b506020830151611bbb6020860182611afb565b506040830151611bce6040860182611b18565b506060830151611be16060860182611b37565b506080830151611bf46080860182611b37565b5060a083015184820360a0860152611c0c8282611b57565b9150508091505092915050565b60006020820190508181036000830152611c338184611b90565b905092915050565b600081519050611c4a816115fd565b92915050565b600060208284031215611c6657611c656115f3565b5b6000611c7484828501611c3b565b91505092915050565b7f4e487b7100000000000000000000000000000000000000000000000000000000600052601160045260246000fd5b6000611cb782611523565b9150611cc283611523565b9250828203905081811115611cda57611cd9611c7d565b5b92915050565b600082825260208201905092915050565b7f4d7573742062652070726f706f736564206f776e657200000000000000000000600082015250565b6000611d27601683611ce0565b9150611d3282611cf1565b602082019050919050565b60006020820190508181036000830152611d5681611d1a565b9050919050565b6000606082019050611d7260008301866118e0565b611d7f60208301856118e0565b611d8c60408301846118e0565b949350505050565b7f4e487b7100000000000000000000000000000000000000000000000000000000600052603260045260246000fd5b7f4e487b7100000000000000000000000000000000000000000000000000000000600052601260045260246000fd5b6000611dfd82611523565b9150611e0883611523565b925082611e1857611e17611dc3565b5b828206905092915050565b600081905092915050565b50565b6000611e3e600083611e23565b9150611e4982611e2e565b600082019050919050565b6000611e5f82611e31565b9150819050919050565b6000611e74826118ae565b9050919050565b611e8481611e69565b82525050565b6000602082019050611e9f6000830184611e7b565b92915050565b611eae816116ee565b82525050565b602082016000820151611eca6000850182611ea5565b50505050565b6000602082019050611ee56000830184611eb4565b92915050565b7f4f6e6c792063616c6c61626c65206279206f776e657200000000000000000000600082015250565b6000611f21601683611ce0565b9150611f2c82611eeb565b602082019050919050565b60006020820190508181036000830152611f5081611f14565b9050919050565b7f43616e6e6f74207472616e7366657220746f2073656c66000000000000000000600082015250565b6000611f8d601783611ce0565b9150611f9882611f57565b602082019050919050565b60006020820190508181036000830152611fbc81611f80565b905091905056fea2646970667358221220009f636430ade4475aa83c614b611910912947910a54416773c84bc4b7a9cfa164736f6c63430008130033",
  "devdoc": {
    "kind": "dev",
    "methods": {
      "checkUpkeep(bytes)": {
        "details": "Offchain execution (via eth_call) is enforced via cannotExecute."
      }
    },
    "version": 1
  },
  "userdoc": {
    "kind": "user",
    "methods": {
      "acceptOwnership()": {
        "notice": "Allows an ownership transfer to be completed by the recipient."
      },
      "owner()": {
        "notice": "Get the current owner"
      },
      "performUpkeep(bytes)": {
        "notice": "performUpkeep should only be called by a chainlink forwarder"
      },
      "setCoordinator(address)": {
        "notice": "Sets the VRF Coordinator addressThis method should only be callable by the coordinator or contract owner"
      },
      "transferOwnership(address)": {
        "notice": "Allows an owner to begin transferring ownership to a new address."
      }
    },
    "version": 1
  },
  "storageLayout": {
    "storage": [
      {
        "astId": 101,
        "contract": "contracts/Raffle.sol:Raffle",
        "label": "s_owner",
        "offset": 0,
        "slot": "0",
        "type": "t_address"
      },
      {
        "astId": 103,
        "contract": "contracts/Raffle.sol:Raffle",
        "label": "s_pendingOwner",
        "offset": 0,
        "slot": "1",
        "type": "t_address"
      },
      {
        "astId": 303,
        "contract": "contracts/Raffle.sol:Raffle",
        "label": "s_vrfCoordinator",
        "offset": 0,
        "slot": "2",
        "type": "t_contract(IVRFCoordinatorV2Plus)452"
      },
      {
        "astId": 643,
        "contract": "contracts/Raffle.sol:Raffle",
        "label": "s_forwarderAddress",
        "offset": 0,
        "slot": "3",
        "type": "t_address"
      },
      {
        "astId": 646,
        "contract": "contracts/Raffle.sol:Raffle",
        "label": "s_players",
        "offset": 0,
        "slot": "4",
        "type": "t_array(t_address_payable)dyn_storage"
      },
      {
        "astId": 648,
        "contract": "contracts/Raffle.sol:Raffle",
        "label": "s_lastUpkeepTimestamp",
        "offset": 0,
        "slot": "5",
        "type": "t_uint256"
      },
      {
        "astId": 672,
        "contract": "contracts/Raffle.sol:Raffle",
        "label": "s_recentWinner",
        "offset": 0,
        "slot": "6",
        "type": "t_address_payable"
      },
      {
        "astId": 675,
        "contract": "contracts/Raffle.sol:Raffle",
        "label": "s_raffleState",
        "offset": 20,
        "slot": "6",
        "type": "t_enum(RaffleState)632"
      }
    ],
    "types": {
      "t_address": {
        "encoding": "inplace",
        "label": "address",
        "numberOfBytes": "20"
      },
      "t_address_payable": {
        "encoding": "inplace",
        "label": "address payable",
        "numberOfBytes": "20"
      },
      "t_array(t_address_payable)dyn_storage": {
        "base": "t_address_payable",
        "encoding": "dynamic_array",
        "label": "address payable[]",
        "numberOfBytes": "32"
      },
      "t_contract(IVRFCoordinatorV2Plus)452": {
        "encoding": "inplace",
        "label": "contract IVRFCoordinatorV2Plus",
        "numberOfBytes": "20"
      },
      "t_enum(RaffleState)632": {
        "encoding": "inplace",
        "label": "enum Raffle.RaffleState",
        "numberOfBytes": "1"
      },
      "t_uint256": {
        "encoding": "inplace",
        "label": "uint256",
        "numberOfBytes": "32"
      }
    }
  }
}